:020000040800F2
:100000006807002001010008D3210008191E00081C
:10001000D1210008C9030008712900080000000070
:10002000000000000000000000000000F3230008B2
:100030005904000800000000F1230008F52300081F
:100040001B0100081B0100081B0100081B01000820
:100050001B0100081B0100081B0100081B01000810
:100060001B0100081B0100081B0100081B01000800
:100070001B0100081B0100081B0100081B010008F0
:100080001B0100081B0100081B0100081B010008E0
:100090001B0100081B0100081B0100081B010008D0
:1000A0001B0100081B0100081B010008592400085F
:1000B00065240008712400087D2400081B01000845
:1000C0001B0100081B0100081B0100081B010008A0
:1000D0001B0100084D29000859290008652900085E
:1000E0001B0100081B0100081B010008DFF80CD0F1
:1000F00000F058F9004800474D2A00086807002022
:100100000648804706480047FEE7FEE7FEE7FEE7B1
:10011000FEE7FEE7FEE7FEE7FEE7FEE757240008FE
:10012000ED000008D2B201E000F8012B491EFBD21D
:1001300070470022F6E710B513460A4604461946F2
:10014000FFF7F0FF204610BDF0B480EA0102D40FA3
:100150004200B2EB410F02D20246084611464A0065
:1001600042D0C30DDDB2C1F3C752AD1A202D35DA2E
:10017000C1F3160141F4000204B15242C5F1200658
:1001800002FA06F12A411044B3EBD05F23D0C4B188
:10019000012DA0EBC35009DCF0BC4FF0004202EA95
:1001A000C352DBB200F5000000F0CDB8400000F112
:1001B000807000EBC350A0F1807040EAD17049001C
:1001C00009E0490841EAC071A0EBC35000F5000006
:1001D000400800EBC350F0BC00F0ACB86142012213
:1001E00002EB4101001BF6E7F0BC704781F00041D3
:1001F000AAE780F00040A7E780EA010210B502F00C
:100200000043400022D04A001FD0010E01EB1261D2
:10021000C0F35600C2F3560240F4000042F400025C
:10022000A0FB022000047F39140400D0401C50EAD7
:10023000124001D44000491EC2B20C0604EBD0109B
:10024000401C4008802A02D003E0002010BD20F0AE
:100250000100002900DA0020184310BD30B480EA04
:10026000010202F0004530F0004221F0004013D0BE
:1002700090B1C30DD40DC2F31601C0F31600E41AF9
:1002800041F4000140F400027D34914201D3641C2A
:1002900000E04900002C02DA30BC002070474FF427
:1002A00000000023914201D3891A034340084FEA1A
:1002B0004101F7D151B1914202D14FF0004105E027
:1002C00002D24FF0010101E06FF0010103EBC450D5
:1002D000284430BC00F02EB8420005D0C0F3C7520D
:1002E0005242914201DC0020704700EBC150704740
:1002F000C10F80EAE0700844CA079623002100F08D
:1003000022B800F0004220F00040C10DC0F31600FA
:1003100040F400007F2901DA00207047962903DCB1
:10032000C1F19601C84001E096398840002AF4D016
:10033000404270470029A8BF7047401C490008BFD1
:1003400020F00100704710B4B0FA80FC00FA0CF005
:1003500050EA010404BF10BC704749B1CCF120043D
:1003600021FA04F411FA0CF118BF012121430843CA
:10037000A3EB0C01CB1D4FEA00614FEA102042BFF6
:10038000002010BC704700EBC35010440029A4BFEC
:1003900010BC7047401C490008BF20F0010010BC91
:1003A00070470000064C074D06E0E06840F001038E
:1003B00094E8070098471034AC42F6D3FFF79AFE52
:1003C000702D0008902D0008FEE7000010B50A4CC3
:1003D0000D2807D00A2805D0084AA16A5054491CA4
:1003E000A16210BD0020A062044800F036F8FFF7BB
:1003F0007FFFE06110BD0000000000201C03002012
:1004000006490D2807D00A2805D0054B0A6B9854D9
:10041000521C0A63704700200863704700000020E8
:100420003403002010B50A4C0D2807D00A2805D047
:10043000084AE16A5054491CE16210BD0020E062A4
:10044000044800F00AF8FFF753FF606110BD000098
:10045000000000204C030020704710B50246002029
:100460001178012323290FD1547801212D2C08D193
:100470000221431E05E000EB80004000303820449C
:10048000491C545C232CF6D1584310BD10B590F88C
:1004900021100022022905D00421816380F8202048
:1004A000012010BD01680B6823F00E030B6001688A
:1004B0000B6823F001030B6090F84030C46B0121FE
:1004C00001FA03F3636080F8211080F820201046C1
:1004D00010BD000010B590F821100024022903D0AF
:1004E0000421816301243DE001680A6822F00E02C4
:1004F0000A6001680A6822F001020A601A4A01686B
:10050000914201D1012121E0174A1432914201D1D7
:1005100010211BE0144A2832914201D1891515E0BF
:10052000114A3C32914201D189140FE00E4A5032F7
:10053000914202D14FF4803108E00B4A643291427B
:1005400002D14FF4801101E04FF08071064A083A61
:100550005160012180F82110002180F82010416BAA
:1005600001B18847204610BD0800024070B504461E
:1005700000F008F90546601C02D0044800780444E5
:1005800000F000F9401BA042FAD370BD3C000020EF
:100590002DE9F84FDFF8B891002409F1040A0AF1B7
:1005A000040B23460F270BF1040EC9E00125A540DB
:1005B0002A40AA427DD1674ED1F804C0ACEB0608B0
:1005C000B44532D014DCBCF1030F3AD009DCBCF1E5
:1005D000000F2AD0BCF1010F1CD0BCF1020F31D1A9
:1005E0001DE0BCF1110F17D0BCF1120F2AD119E098
:1005F000B8F5881F19D006DCB8F5803F15D0B8F5DE
:10060000801F1FD111E0B8F5001F0ED0B8F5041FF0
:1006100018D10AE0CB6815E0CB681B1D12E0CB684F
:1006200008330FE0CB680C330CE08B682BB1012B47
:100630004FF0080303D0456104E0042302E00561A4
:1006400000E00023FF2A01D8064601E000F104067D
:100650004FEA840501D9A5F12005D6F8008007FAF4
:1006600005FC28EA0C0803FA05F548EA0508C6F86F
:1006700000804D68ED0062D5374DAE6946F0010649
:10068000AE61AD6924F0030605F001050095334D18
:1006900006EB050CDCF80850A607360F07FA06F83B
:1006A00025EA0805DFF8B880404503D14FF000087F
:1006B00017E044E0DFF8AC80404502D14FF001087C
:1006C0000FE0DFF8A480404502D14FF0020808E0B7
:1006D000DFF89880404502D14FF0030801E04FF069
:1006E000040808FA06F848EA0508CCF808804D68BE
:1006F000D9F80060ED034D4601D5164300E096435E
:100700002E604D68DAF80060AD03554601D51643FA
:1007100000E096432E604D68DBF80060ED025D4618
:1007200001D5164300E096432E604D68DEF8006068
:10073000AD02754601D5164300E096432E60641C59
:100740000D682A46E5407FF431AFBDE8F88F000020
:1007500000040140000011100010024000000140A0
:1007600000080140000C014000100140001401404D
:100770008068084000D0012070470AB101617047CD
:100780000904FBE701488068704700003C00002036
:100790000248816802781144816070473C00002063
:1007A000074810B5016841F010010160032000F016
:1007B00075F80F2000F006F800F024F8002010BDB6
:1007C0000020024070B50D4D04464FF47A71287830
:1007D000B1FBF0F00A490968B1FBF0F000F0ECFA67
:1007E00048B9102C07D200222146501E00F036F8DE
:1007F00000206C6070BD012070BD00003C00002036
:10080000480000200C4808B5816941F00101816170
:10081000816901F001010091C16941F08051C1611C
:10082000C06900F0805000900448416821F0E06108
:1008300041F00071416008BD00100240000001401D
:10084000002809DB00F01F020121914040098000CF
:1008500000F1E020C0F8001170470000F0B40E4B2A
:100860001B680C46C3F30223C3F10705042D00D90E
:100870000425191D072901D2002300E0DB1E0126F3
:1008800006FA05F1491E214099409E40761E164009
:100890003143F0BC02F0BAB80CED00E0064900F0BC
:1008A000070208684FF6FF03184040EA0220034A97
:1008B00010430860704700000CED00E00000FA05EE
:1008C0002DE9F0470F46050061D0434E306800F037
:1008D0000700B84209D2306820F007003843306082
:1008E000306800F00700B84251D128683B4C8107BE
:1008F00012D5400703D5606840F4E0606060287856
:10090000000703D5606840F4605060606068A968C3
:1009100020F0F000084360602878C00728D068689D
:10092000012810D02168022810D0890700292EDA6A
:10093000616821F0030101436160FFF723FF8046F6
:1009400041F288390DE021688903EFE78901EDE77D
:10095000FFF718FFA0EB0801494502D90320BDE8C5
:10096000F0876068696800F00C00B0EB810FEFD190
:10097000306800F00700B8420BD9306820F007005B
:1009800038433060306800F00700B84201D00120E1
:10099000E5E72878400705D56068E96820F4E0605D
:1009A000084360602878000706D56068296920F44C
:1009B000605040EAC100606000F038F86168084AA1
:1009C000C1F30311515CC84006490860064800683D
:1009D000FFF7F8FE0020C2E70020024000100240AE
:1009E000582D000848000020400000200448054918
:1009F00000684968044AC1F30221515CC84070474D
:100A00004800002000100240682D000804480549F5
:100A100000684968044AC1F3C221515CC84070476C
:100A20004800002000100240682D000812A185B087
:100A30000FC98DE80F0014A0144A00680490516893
:100A4000134801F00C03042B10D0082B0ED1C1F376
:100A50008343C9031DF803000AD5516804AAC1F3F2
:100A60004041515C0A4A5043B0FBF1F005B0704779
:100A700008494843FAE7000002030405060708098D
:100A80000A0B0C0D0E0F10100102000000100240A6
:100A900000127A0000093D002DE9F84F040070D0E3
:100AA0002078C04DC00749D06868C0F38100012894
:100AB00007D06868C0F38100022809D16868C003C4
:100AC00006D52868800339D560680028E7D035E06E
:100AD0006068B0F5803F0BD010B1B0F5A02F11D0F9
:100AE000286820F480302860286820F4802002E004
:100AF000286840F480302860606890B1FFF742FEBB
:100B000006460AE0286840F480202860F0E700BF2D
:100B1000FFF738FE801B642873D828688003F7D558
:100B20000CE0FFF72FFE064605E000BFFFF72AFEA8
:100B3000801B6428F0D828688003F7D420789A4E68
:100B400080074FF001094FF0000839D5686810F0B0
:100B50000C0F07D06868C0F38100022809D16868CB
:100B6000C00306D42868800714D52069012808D15D
:100B700010E02069B0B1C6F80090FFF703FE074609
:100B800005E00AE1FFF7FEFDC01B0228C4D8286873
:100B90008007F7D52868616920F0F80040EAC100B5
:100BA00028600DE0C6F80080FFF7ECFD074604E082
:100BB000FFF7E8FDC01B022823D828688007F7D478
:100BC000207800072CD57948A169D9B1C0F80090E8
:100BD000FFF7D8FD074604E0FFF7D4FDC01B02284D
:100BE0000FD8686A8007F7D571484FF4FA5100684A
:100BF000B0FBF1F0009000BF0098411E0091FAD2C6
:100C00000EE080E0C0F80080FFF7BCFD074604E07E
:100C1000FFF7B8FDC01B022875D8686A8007F7D4B3
:100C20002078400760D5E8690027C00008D4E8694B
:100C300040F08050E861E869012700F080500090A2
:100C40005C480168C90513D40168834641F480718A
:100C50000160FFF797FD824606E000BFFFF792FDB7
:100C6000A0EB0A0064284ED8DBF80000C005F5D5DB
:100C7000E06801280AD008B1052813D0286A20F0BE
:100C800001002862286A20F0040002E0286A40F08F
:100C900001002862E06841F2883B98B1FFF772FDDD
:100CA00082460BE0286A40F004002862EEE700BFAD
:100CB000FFF768FDA0EB0A0159455AD8286A80075A
:100CC000F6D50CE0FFF75EFD824605E0FFF75AFD22
:100CD000A0EB0A0159454CD8286A8007F6D41FB109
:100CE000E86920F08050E861E06988B36968C1F381
:100CF0008101022944D00228C6F8608004D0FFF7A1
:100D000041FD044638E034E0FFF73CFD074604E0CF
:100D1000FFF738FDC01B02282BD828688001F7D4C4
:100D2000206AB0F5803F05D16868A16820F40030E2
:100D300008436860D4E908010843696821F4741124
:100D400008436860C6F86090FFF71CFD044606E0A3
:100D500025E000BFFFF716FD001B022809D8286810
:100D60008001F7D51BE000BFFFF70CFD001B022838
:100D700002D90320BDE8F88F28688001F4D40EE082
:100D80000128F7D06868226A00F48031914204D1CA
:100D9000616A00F47010884201D00120EAE7002067
:100DA000E8E7000000100240000042428004424296
:100DB000480000200070004010B5401EB0F1807F58
:100DC00001D3012010BD4FF0E02460610F216017B6
:100DD00001F01CFE0020A06107202061002010BD52
:100DE0007047704770B590F83C20012A26D0012446
:100DF00080F83C40022280F83D2003685A689D68D4
:100E000022F070060A6832435A600D4B02689A421B
:100E100008D0B2F1804F05D00A4B9A4202D00A4B5B
:100E20009A4204D1496825F080031943916080F803
:100E30003D40002180F83C10084670BD022070BD86
:100E4000002C0140000400400008004010B50400E0
:100E500003D094F83D0010B107E0012010BD002040
:100E600084F83C00204600F01FF8022084F83D0082
:100E7000211D206801F008FB012084F8460084F859
:100E80003E0084F83F0084F8400084F8410084F874
:100E9000420084F8430084F8440084F8450084F854
:100EA0003D00002010BD000008B500680B498842D5
:100EB00012D10B48C16941F00401C161C06900222F
:100EC00000F00400009011461E20FFF7C7FCBDE8AB
:100ED00008401E20FFF7B4BC08BD00000008004019
:100EE0000010024090F83D10012901D00120704708
:100EF000022180F83D100168CA6842F00102CA6010
:100F000000680B49884208D0B0F1804F05D00949EC
:100F1000884202D00849884204D1816801F0070163
:100F2000062903D0016841F00101016000207047EB
:100F3000002C0140000400400008004070B5044649
:100F400090F83C00012817D0012584F83C5002207D
:100F500084F83D002068826822F0770222F47F4204
:100F600082600868502830D00DDC20284DD005DC88
:100F700098B310283BD148E0022070BD302844D0FF
:100F8000402834D139E0602828D0702806D0B0F548
:100F9000805F2CD0B0F5005F29D10AE0CB68D1E9A1
:100FA0000121206801F0B3FA2068816841F07701DF
:100FB00009E0CB68D1E90121206801F0A8FA206896
:100FC000816841F48041816011E0CA684968206805
:100FD00001F052FB5021206807E016E0CA6849681A
:100FE000206801F087FB6021206801F09AFA84F8FC
:100FF0003D50002084F83C0070BDCA6849682068F4
:1010000001F03AFB40212068EFE7226801461046D4
:10101000EBE700002DE9F05F8046006862498842F6
:1010200012D1624D687802287DD098F81C00DFF854
:1010300080B14FF0010A4FF0000904284BD15D4EFA
:10104000306910B1012808D09DE008215A4800F00D
:1010500061FCC6F810A030603DE00821564800F061
:1010600059FC7060F1684C46C1EB0141084431689D
:10107000C6F81090401AC6E902094FF4804158465C
:10108000FFF776FB0028B0682AD0FFF731F9014658
:101090004A4800BFFFF7E2F807466C60454E00245F
:1010A00016F1280656F824106868FFF74DF86860B6
:1010B00006EB8400406846F82400641C092CF1DB30
:1010C00039466868FFF740F8686077623C496868AD
:1010D000FFF7C4F8686098F81C00082805D052E0B3
:1010E000FFF706F901463748D4E7324E1436306927
:1010F00010B1012808D046E00C212F4800F00AFC6E
:10110000C6F810A030603EE00C212B4800F002FC35
:101110007060F1684C46C1EB014108443168401AE7
:101120004FF4004100E03DE0C6F81090C6E9020926
:101130005846FFF71DFB0028B0682ED0FFF7D8F8FF
:1011400001462048FFF78AF80746AC60194E002494
:1011500016F1500656F82410A868FEF7F5FFA860AF
:1011600006EB8400406846F82400641C092CF1DB7F
:101170003946A868FEF7E8FFA86077621049A868BA
:10118000FFF76CF8A86008210B4800F007F9BDE8EC
:10119000F05F0C21084800F001B9FFF7A9F80146FB
:1011A0000648CFE7BDE8F09F002C0140000000207A
:1011B000000C0140380200204C00002052E602C41E
:1011C0000000204152E602442DE9F041054690F826
:1011D0003C000C46012836D0012085F83C008AB33B
:1011E000042A42D02868082A51D0D4E90023E168B3
:1011F000066A26F480560662C669076A26F44076B7
:1012000046EA03234FF6FF7606EA013123F47043E2
:1012100019434FF4005627F4005306EA02321A43EA
:10122000C16102622868C16921F44061C161286816
:10123000C169A26841EA0221C161002085F83C0031
:10124000BDE8F08101E00220FAE7D4E90012E3688A
:10125000286801F023FA2868816921F00C01816176
:1012600028688169A26811430FE0D4E90012E3689D
:10127000286801F051FA2868816921F44061816190
:1012800028688169A26841EA02218161D5E7D4E931
:101290000027267B016A21F480710162C169036A1B
:1012A00021F00301394321F0F00731074FF40076B4
:1012B00047EA116123F4007306EA02221A43C1616E
:1012C00002622868C16921F00C01C1612868C16906
:1012D000A2681143B0E710B5040003D094F83D00B4
:1012E00010B107E0012010BD002084F83C0020462A
:1012F00000F01EF8022084F83D00211D206801F056
:10130000C3F8012084F8460084F83E0084F83F00CA
:1013100084F8400084F8410084F8420084F84300D7
:1013200084F8440084F8450084F83D00002010BD96
:1013300000B585B0002100910191029103910068F0
:101340001349884221D11348816941F400618161C8
:10135000816901F400610491816941F004018161B6
:101360008069694600F0040004904FF470600090BA
:10137000022002900848FFF70BF9002211461B20BB
:10138000FFF76CFA1B20FFF75BFA05B000BD000009
:10139000002C0140001002400008014010B5044636
:1013A00051B104290DD0082910D094F8410094F8C7
:1013B0004520012811D10EE094F83E0094F8422017
:1013C000F7E794F83F0094F84320F2E794F84000E0
:1013D00094F84420EDE7012A01D0012010BD02203D
:1013E00051B1042911D0082918D084F8410084F89B
:1013F00045000C291BD136E084F83E0084F84200F9
:101400002068C26842F0020210E084F83F0084F8CD
:1014100043002068C26842F0040207E084F84000FC
:1014200084F844002068C26842F00802C2600122C9
:10143000206801F05FF80E492068884208D0B0F1BA
:10144000804F05D00B49884202D00B49884204D115
:10145000816801F00701062903D0016841F001010C
:101460000160002010BD2068C26842F01002DDE774
:10147000002C0140000400400008004070B5044604
:10148000006801694FF00005C943890715D4C16898
:10149000C943890711D4E91E016101202077206822
:1014A00080698007204602D0FFF7B4FD04E000F019
:1014B000F7F8204600F0B6F9257720680169C9439E
:1014C000490717D4C168C943490713D46FF0040111
:1014D0000161022020772068806910F4407F204657
:1014E00002D0FFF797FD04E000F0DAF8204600F0A4
:1014F00099F9257720680169C943090716D4C1689D
:10150000C943090712D46FF0080101610420207754
:101510002068C0698007204602D0FFF77BFD04E009
:1015200000F0BEF8204600F07DF9257720680169BB
:10153000C943C90617D4C168C943C90613D46FF09B
:1015400010010161082020772068C06910F4407FF5
:10155000204602D0FFF75EFD04E000F0A1F820462F
:1015600000F060F9257720680169C943C90708D1EF
:10157000C168C943C90704D1891E0161204600F032
:10158000A1F920680169C943090609D4C168C943A2
:10159000090605D46FF0800101612046FFF720FCA9
:1015A00020680169C943490609D4C168C94349068D
:1015B00005D46FF040010161204600F0C0F92068B9
:1015C0000169C94389060BD4C168C943890607D498
:1015D0006FF0200101612046BDE87040FFF701BCBB
:1015E00070BD000070B586B000210091019102919C
:1015F00003910068254903250224254AB0F1804F54
:101600001ED0244B244E98422CD1886940F004000F
:101610008861886900F004000490886940F008003F
:1016200088618869694600F008000490C020CDE90F
:10163000000410460394FEF7ABFFCDE9005420E010
:10164000886940F0040088618869CDE9005400F0A1
:101650000400CDE9034069464FEA0200FEF798FF17
:1016600006B070BD0D4A9042FAD1886940F008007A
:101670008861886900F0080004904FF44070CDE95B
:101680000004694630460394E8E700000010024079
:101690000008014000040040000C01400008004028
:1016A000704770B5044690F83C000D4601280AD0FA
:1016B000012084F83C0042B1042A18D0082A2AD01C
:1016C0000C2A4DD139E0022070BD206800F032FFB5
:1016D0002068816941F0080181612068816921F0F9
:1016E00004018161206881692A69114311E0206841
:1016F00000F048FF2068816941F400618161206841
:10170000816921F480618161206881692A6941EAE7
:101710000221816124E0206800F060FF2068C16937
:1017200041F00801C1612068C16921F00401C16173
:101730002068C1692A69114311E0206800F07AFF2E
:101740002068C16941F40061C1612068C16921F468
:101750008061C1612068C1692A6941EA0221C161D1
:10176000002084F83C0070BD10B5040003D094F84C
:101770003D0010B107E0012010BD002084F83C00BE
:10178000204600F01FF8022084F83D00211D20684B
:1017900000F07AFE012084F8460084F83E0084F8C8
:1017A0003F0084F8400084F8410084F8420084F847
:1017B000430084F8440084F8450084F83D0000208C
:1017C00010BD000008B501681448B1F1804F14D075
:1017D000134A914220D1C16941F00201C161C0693F
:1017E000002200F00200009011461D20FFF736F89D
:1017F0001D20BDE80840FFF723B8C16941F0010191
:10180000C161C069002200F00100009011461C2057
:10181000FFF724F81C20ECE708BD00000010024090
:10182000000400407047000010B50446022249B190
:1018300004290ED0082913D094F84100012816D0AD
:10184000012010BD94F83E000128F9D184F83E2013
:101850000FE094F83F000128F2D184F83F2008E01F
:1018600094F840000128EBD184F8402001E084F88E
:1018700041200122206800F03DFE0F492068884287
:1018800003D1426C42F4004242642068884208D08E
:10189000B0F1804F05D00949884202D008498842FA
:1018A00004D1816801F00701062903D0016841F0E5
:1018B00001010160002010BD002C01400004004027
:1018C000000800400F4A016891420CD1007F0428B3
:1018D00006D0082803D10C48C168491CC160704774
:1018E00009481438F8E709488142F8D10848416AA4
:1018F000491C41620A29F2DB012101700021416289
:1019000070470000002C01404C02002000080040FD
:10191000000000200246002041B1042909D0082916
:101920000AD00C2901D11068006C70471068406B18
:1019300070471068806B70471068C06B70477047C5
:101940007047704710B504460068C16821F4907173
:10195000C1602068416921F001014161206B0128CB
:1019600004D12068C16821F01001C1602168486974
:101970004FF0200243064FF000000FD54B6923F0D3
:1019800040034B61A16B49B109484863A06BFEF766
:10199000A1FD50B1A06B416B884706E0E08584F85B
:1019A0003E2020632046FFF7CCFF002010BD000042
:1019B0005F27000870470000F8B502680446106809
:1019C000D168536910F00F0F4FF0000554D003F0A9
:1019D000010601F4907737435FD0C20705D0CA05EE
:1019E00003D5226C42F001022264420705D5DA07D2
:1019F00003D0226C42F002022264820705D5DA0786
:101A000003D0226C42F004022264020707D501F0E1
:101A10002002324303D0226C42F008022264226C7E
:101A2000002A35D0800604D5880602D5204600F06D
:101A3000B9FE20684069216CC0F3801001F00801F4
:101A40000143204625D000F095FE206841694906F3
:101A50001BD5416921F040014161A06BA8B15849F3
:101A60004163A06BFEF736FD002811D0A06B416BDF
:101A700001B0BDE8F040084783060ED58B060CD5B3
:101A80002046BDE8F84000F08DBE2046FFF792FFEB
:101A9000F8BDFFF78FFF2564F8BD266B2023012ECC
:101AA00052D1C60650D5CE064ED51068506800906B
:101AB000506940062AD5A16B086840680004000CF4
:101AC000EAD0A68D8642E7D9E0858869202818D01B
:101AD000D06820F48070D0602068416921F0010155
:101AE00041612068416921F04001416184F83E3044
:101AF00025632068C16821F01001C160A06BFEF76A
:101B0000C5FCA08DE18D401A81B219E0A08DE18D58
:101B1000401A81B2E08D0028BED00029BCD0D06828
:101B200020F49070D0602068426922F00102426186
:101B300084F83E3025632068C26822F01002C2603B
:101B40002046FFF7FDFEF8BD05062BD50D0629D56D
:101B500094F83D002128F6D1A068B0F5805F01D14E
:101B60002069B0B1206A411C216221680078486078
:101B7000E08C401E0004000CE084E4D12068C168C1
:101B800021F08001C1602068C16841F04001C1605E
:101B9000F8BD206A0088C0F308005060206A801CED
:101BA0002062E5E74006F3D54806F1D5D168204626
:101BB00021F04001D16084F83D3000F02BF9F8BDF0
:101BC0004F27000870B5040004D094F83D000025AC
:101BD00010B106E0012070BD84F83C50204600F0B2
:101BE00023F8242084F83D002068C16821F40051C6
:101BF000C160204600F032FE2068016921F4904166
:101C000001612068416921F02A0141612068C168B1
:101C100041F40051C1602564202084F83D0084F81F
:101C20003E00002070BD000070B586B00025009514
:101C3000019502950395474B02684749022403200A
:101C4000464E9A422DD18A6942F480428A618A695D
:101C500002F4804204928A6942F008028A6189692A
:101C6000039001F0080104914021CDE90014694678
:101C70003046FEF78DFC8020CDE9000569460294D0
:101C80003046FEF785FC3648416841F0E06141F09E
:101C900004014160002211462520FEF7DFFD2520CA
:101CA00029E0304B9A422AD1CA6942F40032CA6113
:101CB000CA6902F4003204928A6942F004028A611D
:101CC0008969039001F0040104910421CDE9001415
:101CD000254C69462046FEF75BFC0820CDE900054F
:101CE000694620460295FEF753FC00221146262045
:101CF000FEF7B4FD2620FEF7A3FD06B070BD1B4B1A
:101D00009A42FAD1CA6942F48022CA61CA6902F4CD
:101D1000802204928A6942F008028A6189690390EC
:101D200001F0080104911915CDE900146946304607
:101D3000FEF72EFC4FF40060CDE9000569460294E1
:101D40003046FEF725FC002211462720FEF786FDCF
:101D50002720D0E70038014000100240000C01406D
:101D600000000140004400400008014000480040DD
:101D700090F83E30202B0ED159B152B190F83C3042
:101D8000012B08D0012380F83C300023036300F0CE
:101D9000C1BD012070470220704700001B4910B5EB
:101DA00088420BD101F5B4700078FEF70FFB17489D
:101DB000FFF7C8FD01221649144822E013494431B7
:101DC00088420CD101F59E700078FEF719FB0F4890
:101DD0004430FFF7B7FD0E49012218310FE00B49DF
:101DE0008831884211D101F588700078FEF71AFB1E
:101DF00006488830FFF7A6FD054901223031034827
:101E00008830BDE81040FFF7B3BF10BD6C01002063
:101E1000D402002070470000044D4FF4005401220A
:101E200021462846FEF7A9FCF9E700000010014012
:101E30002DE9F04F85B000254548009501950295A4
:101E40000395816941F010018161816901F0100100
:101E50000491816941F020018161816901F02001D3
:101E60000491816941F004018161816901F00401FB
:101E70000491816941F0080181618069DFF8D490A3
:101E800000F008004FF40054049000222146484618
:101E9000FEF773FCDFF8C0A0002249F23001504683
:101EA000FEF76BFCDFF8B4B0002238215846FEF78D
:101EB00064FC01260327CDE90046CDE902576946B7
:101EC0004846FEF765FB6000CDE90005022469463F
:101ED00002944846FEF75CFB4FF400482048CDF8DA
:101EE0000080CDE9010469464846FEF751FB3020E9
:101EF000CDE90006CDE9024769465046FEF748FBAA
:101F00004FF47040CDE90005694602945846FEF74B
:101F10003FFBE002CDE90006CDE902576946504695
:101F2000FEF736FBCDF80080CDE9016469465046E6
:101F30000394FEF72DFB38200090CDE9016469463B
:101F400058460394FEF724FB05B0BDE8F08F00006F
:101F5000001002400010014000080140000C014048
:101F60000000111010B586B0002425480594049493
:101F70000094019402942149039401604721C0E92F
:101F800001144FF6FF71C0E903148021C0E9054137
:101F9000FFF7A1F908B172B6FEE7049404A9184846
:101FA0000594FEF71FFF08B172B6FEE70120CDE9E8
:101FB000004002940022694611480394FFF704F997
:101FC00008B172B6FEE7042269460D48FFF7FCF837
:101FD00008B172B6FEE7082269460948FFF7F4F82F
:101FE00008B172B6FEE70C2269460548FFF7ECF827
:101FF000002801D072B6FEE706B010BD002C0140EB
:102000004C00002010B58AB0002407941C216846BB
:102010000894FEF78EF81A484FF08041016047217E
:10202000C0E9011440F2E731C0E903148461FFF70D
:102030009BFB08B172B6FEE7079407A91048089405
:10204000FEF7D0FE08B172B6FEE76020CDE90004CD
:102050000294002269460A480494FFF722FB08B163
:1020600072B6FEE7042269460548FFF71AFB08B17D
:1020700072B6FEE70248FFF7B5FA0AB010BD0000DD
:102080009400002010B58AB0002407941C216846F3
:102090000894FEF74EF82248204901604721C0E924
:1020A000011440F2E731C0E903148461FFF75CFBDF
:1020B00008B172B6FEE7079407A919480894FEF71D
:1020C00091FE08B172B6FEE76020CDE900040294EB
:1020D0000022694612480494FFF7E3FA08B172B689
:1020E000FEE7042269460E48FFF7DBFA08B172B634
:1020F000FEE7082269460A48FFF7D3FA08B172B62C
:10210000FEE70C2269460648FFF7CBFA08B172B623
:10211000FEE70348FFF766FA0AB010BD000400406E
:10212000DC00002010B58EB00024079408940994B8
:102130000A940B941C2168460C94FDF7FAFF23487F
:10214000214901604721C0E9011440F2E731C0E9AB
:10215000031480218161FEF779FE08B172B6FEE7B3
:102160004FF48050079007A91848FEF7E7FE08B122
:1021700072B6FEE71548FFF7F7FA08B172B6FEE748
:102180000B940BA911480C94FEF72CFE08B172B603
:10219000FEE76020CDE900040294082269460B485E
:1021A0000494FFF77EFA08B172B6FEE70C22694686
:1021B0000648FFF776FA08B172B6FEE70348FFF764
:1021C00011FA0EB010BD00000008004024010020EC
:1021D000FEE7FEE770B5044620480A46814201DD6D
:1021E000256A04E021681046FEF700F80546216ADA
:1021F0002846FDF7FBFF6168FDF7FEFF2061656182
:10220000206A0121FEF768F82946FDF7F2FFE1692F
:10221000FDF79AFFE168FDF7EFFFA061206AE0613A
:10222000256261690E48814200DD606161690D4887
:10223000814200D960616169A068FDF7DDFF216915
:10224000FDF782FFA169FDF77FFF0749884202DCA5
:102250000649884200D9084670BD00000000B4431A
:1022600000004842000048C200007A4400007AC4DE
:1022700010B504461D480A46B1F17E5F00DD426B91
:10228000426321681046FDF7B1FF2062216A606851
:10229000FDF7B2FF2061216A6069FDF755FF6061BB
:1022A000E169206AFDF7A2FFE168FDF7A5FFA061E3
:1022B000206AE06161690E48814200DD6061616908
:1022C0000C48814200D960616169A068FDF794FF04
:1022D0002169FDF739FFA169FDF736FF06498842FC
:1022E00002DC0649884200D9084610BD00000020E3
:1022F00000002041000020C100007A4400007AC4A0
:102300002DE9F041044627480D46B1F17E5F866B0A
:1023100000DD3546804631462846FDF767FF224FEF
:10232000B84205DA29463046FDF760FFB84200DBC7
:102330003546C8F8385021682846FDF757FF206217
:10234000216A6068FDF758FF2061216A6069FDF726
:10235000FBFE6061E169206AFDF748FFE168FDF777
:102360004BFFA061206AE06161691048814200DD95
:10237000606161690E48814200D960616169A0684D
:10238000FDF73AFF2169FDF7DFFEA169FDF7DCFEED
:102390000849884202DC0849884200D90846BDE85D
:1023A000F081000000000020CDCCCC3D0000204199
:1023B000000020C100007A4400007AC400210160BE
:1023C00041608160C160016141618161C1610162FF
:1023D000704739B1012907D0022907D0032900D15C
:1023E000026070474260704782607047C260704709
:1023F00070477047FEF7CCB930B58FB028216846DA
:10240000FDF797FE14210AA8FDF793FE01210804A9
:10241000CDE900100024029402250491CDE9075073
:102420004FF4E01009906846FEF736FB08B172B62B
:10243000FEE70F20CDE90A054FF48060CDE90C409E
:1024400002210AA80E94FEF73BFA002801D072B6CA
:10245000FEE70FB030BD70470148FFF70FB800002E
:102460004C0000200148FFF709B80000940000204C
:102470000148FFF703B80000DC0000200148FEF728
:10248000FDBF000024010020F0B50268164B174C78
:10249000174D4FF08047984205D0B84203D0A04274
:1024A00001D0A84203D122F070064A683243984214
:1024B00005D0B84203D0A04201D0A84203D122F4F3
:1024C0004074CA6822434C6922F0800222430260B1
:1024D0008A68C2620A688262984201D1096901630E
:1024E00001214161F0BD0000002C014000040040CA
:1024F0000008004010B501F01F030121046A994053
:102500008C430462016A9A401143016210BD10B508
:10251000846842EA032224F47F440A43224382600F
:1025200010BD826822F070020A4342F00701816008
:102530007047000030B5026A22F001020262026AAE
:102540004368846924F073050C682C4322F002056B
:102550008A682A430A4DA8420BD122F00805CA68AE
:1025600023F440732A434D6922F004021D438B6912
:102570002B434360846149684163026230BD0000BF
:10258000002C014030B5026A22F010020262026A99
:10259000436884690D6824F4E64444EA05248D68A0
:1025A00022F0200242EA05120B4DA8420ED1CD685E
:1025B00022F0800242EA05124D6923F4406343EAA7
:1025C00085038D6922F0400243EA850343608461FC
:1025D00049688163026230BD002C014030B5026A57
:1025E00022F480720262036A4268C46923F40073B1
:1025F00024F073050C682C438D6843EA05230C4DC9
:10260000A8420ED1CD6823F4006343EA05234D6947
:1026100022F4405242EA05128D6923F4806342EAB3
:1026200005124260C4614968C163036230BD0000A5
:10263000002C014030B5026A22F480520262046A22
:102640004268C3690D6823F4E64343EA05238D68B5
:1026500024F4005444EA0534064DA84204D14D69DF
:1026600022F4804242EA85124260C36149680164F3
:10267000046230BD002C014010B5036A046A24F0E6
:1026800001040462846924F0F00444EA021423F093
:102690000A020A438461026210BD000070B5046A38
:1026A00024F0010404628469056A0F4EB04208D028
:1026B000B0F1804F05D00D4EB04202D00C4EB0426A
:1026C00003D124F00304144301E044F001041A0789
:1026D00024F0F00444EA126225F00A0301F00A0132
:1026E00019438261016270BD002C0140000400406A
:1026F0000008004010B5036A23F0100303628369E9
:10270000046A23F4704343EA023224F0A00343EA4C
:1027100001118261016210BD30B5046A24F0100419
:1027200004628469056A24F4407444EA022222F4B3
:1027300070444FF6FF7202EA03322243A02425F0D0
:10274000A00304EA011119438261016230BD10B592
:10275000406A0021C185C184FFF72CF910BD10B576
:10276000406A0021C185202280F83E200163FFF7E6
:10277000E8F810BD0168CA6822F49072CA60016866
:102780004A6922F001024A61016B012904D1016802
:10279000CA6822F01002CA60202180F83E10002191
:1027A0000163704708B590F83E10222901D002203D
:1027B00008BD82684FF480539A4201D1016921B16A
:1027C000816A9A421BD04AB10AE00268816A526863
:1027D000C2F308020A80816A891C08E0026972B1AA
:1027E0000268526802F07F020A70816A491C8162A5
:1027F000C18D491E0904090CC18503D019E0026886
:102800005268F1E70168CA6822F02002CA600168D4
:10281000CA6822F48072CA6001684A6922F0010223
:102820004A61202180F83E10016B012903D0FFF797
:10283000B5FA002008BD002101630168CA6822F0D2
:102840001002CA6001680A68D20602D50A6849689F
:102850000091818DFFF774F8EBE7000070B5044636
:1028600000680169E26821F4405111430161216966
:10287000A0680843616908432168CA6841F20C6393
:102880009A430243CA6020684169A26921F44071F9
:10289000114341611E492068884202D1FEF7B6F813
:1028A00001E0FEF7A3F800EBC00101EB0012606845
:1028B00064218000B2FBF0F3B3FBF1F36FF0180674
:1028C0007343B2FBF0F5B2FBF0F605EB8305322360
:1028D00003EB0515B5FBF1F5B6FBF1F605F0F005D8
:1028E00005EB0615B2FBF0F6B2FBF0F0B0FBF1F031
:1028F0006FF01802504306EB800003EB0010B0FBB2
:10290000F1F0216800F00F002844886070BD0000DD
:102910000038014081628285C28500210164222243
:1029200080F83E2080F83C100168CA6842F480724A
:10293000CA6001684A6942F001024A610068C168E0
:1029400041F02001C1600020704700000148FFF7FE
:1029500033B800006C0100200148FFF72DB80000DB
:10296000B00100200148FFF727B80000F401002063
:10297000FEE7000070B50C4640F2EE218C4202DC0E
:102980001E498C4200DA0C461D4D032829680CD0E4
:10299000042820D143031B48002C20DD4FF0000207
:1029A0001946FDF7EAFE286822E01748002C08DDEA
:1029B0004FF001024FF00801FDF7DFFEC4F57A7019
:1029C00007E009DA4FF000024FF00801FDF7D5FEED
:1029D00060422968C86370BD4FF47A70FAE709DA7B
:1029E0004FF001021946FDF7C8FE286804F57A7415
:1029F000046470BD0020086470BD000018FCFFFF77
:102A00002401002000080140000C01400907090EC4
:102A1000002804DB00F1E02080F80014704700F08B
:102A20000F0000F1E02080F8141D704702E008C894
:102A3000121F08C1002AFAD170477047002001E038
:102A400001C1121F002AFBD17047000092B0FDF7B0
:102A5000A7FEFFF7D1FCFFF7EBF9B048AE494FF402
:102A6000E13600250160C0E901650C24C560C0E9BC
:102A700004548561C561FFF7A5F808B172B6FEE799
:102A8000FFF7C0FAFFF7FEFAFFF74CFBFFF76AFA11
:102A9000A248A34988300160C0E90165C560C0E96A
:102AA00004548561C561FFF78DF808B172B6FEE781
:102AB0009A489C4944300160C0E90165C560C0E99D
:102AC00004548561C561FFF77DF808B172B6FEE771
:102AD00092480021D838FEF7A7FE90480421D83844
:102AE000FEF7A2FE8D4808214838FEF79DFE8B4870
:102AF0000C214838FEF798FE884800219038FEF7F0
:102B000093FE864804219038FEF78EFE8348082104
:102B10009038FEF789FE81480C219038FEF784FE3C
:102B200000221146501EFDF799FE7F48FEF7DAF9A4
:102B300008217D48FEF732FC0C217B48FEF72EFC75
:102B400001227A497548FFF713F97849012230319B
:102B5000A1F58870FFF70CF970484838FEF7C2F904
:102B60006846FFF72BFC09A8FFF728FC4FF07C50C4
:102B7000009009906E4CE1680320FFF7FBFE21698D
:102B80000420FFF7F7FE6B4B00211A466846FFF75B
:102B900020FC1A46002109A8FFF71BFC664B012107
:102BA0001A466846FFF715FC1A46012109A8FFF7E7
:102BB00010FC624A02216846FFF70BFC604A0221C2
:102BC00009A8FFF706FC59482438FFF7F7FB5748D8
:102BD000243805605B4A0021FFF7FBFB53485A4A43
:102BE00001212438FFF7F5FB5048584A02212438C8
:102BF000FFF7EFFB4FF47A70FDF7B8FC4B4EDFF8B0
:102C000050A16FF027084FF07A59783620780028C5
:102C1000FCD06078022813D1C4F80C800520206114
:102C2000E1680320FFF7A6FE21690420FFF7A2FE5A
:102C300041F28830FDF79AFCC820E06020616570A1
:102C4000206A052821DB394861692438FFF7C2FA78
:102C5000A169FDF779FAA061A1694846814200DDCA
:102C6000A061A1695046814200D9A0613949E0695B
:102C7000FDF7F4FA0746A169FDF766FA00903846B9
:102C8000A169FDF7B3FA0990256261686846FFF70C
:102C9000EFFA0746E068FDF72BFB3946FDF754FADB
:102CA000FDF72FFBE060A16809A8FFF729FB0746A5
:102CB0002069FDF71DFB3946FDF746FAFDF721FBBC
:102CC00020612069002801DA32202061E1680320B8
:102CD000FFF750FE21690420FFF74CFE2570206AA3
:102CE000401C2062307873280DD077280FD0607890
:102CF00001288BD141460320FFF73CFE052104202B
:102D0000FFF738FEFEE7357001206070F2E735709E
:102D1000022060707AE70000003801406C0100205A
:102D200000480040004400404C000020D402002035
:102D300000000020000020C20AD7A3BC0000C8C3C6
:102D40000000FAC45839343C17B751388FC2753C6B
:102D5000000080BE00007A44000000000000000077
:102D60000102030406070809000000000102030431
:102D7000902D0008000000204C0000002C2A0008C4
:102D8000DC2D00084C0000201C0700003C2A000835
:102D9000000000000000000000000000C80000006B
:102DA000C800000000000000000000000000E14337
:102DB0000000000000000000000000000000000013
:102DC0000000000000000000000000000100000002
:0C2DD00010000000000000000024F400CF
:04000005080000ED02
:00000001FF
